{
  "_format": "hh-sol-artifact-1",
  "contractName": "TokenTreat",
  "sourceName": "contracts/TokenTreat.sol",
  "abi": [
    {
      "inputs": [],
      "stateMutability": "nonpayable",
      "type": "constructor"
    },
    {
      "inputs": [],
      "name": "AccessControlBadConfirmation",
      "type": "error"
    },
    {
      "inputs": [
        {
          "internalType": "address",
          "name": "account",
          "type": "address"
        },
        {
          "internalType": "bytes32",
          "name": "neededRole",
          "type": "bytes32"
        }
      ],
      "name": "AccessControlUnauthorizedAccount",
      "type": "error"
    },
    {
      "inputs": [
        {
          "internalType": "address",
          "name": "target",
          "type": "address"
        }
      ],
      "name": "AddressEmptyCode",
      "type": "error"
    },
    {
      "inputs": [
        {
          "internalType": "address",
          "name": "implementation",
          "type": "address"
        }
      ],
      "name": "ERC1967InvalidImplementation",
      "type": "error"
    },
    {
      "inputs": [],
      "name": "ERC1967NonPayable",
      "type": "error"
    },
    {
      "inputs": [],
      "name": "ERC721EnumerableForbiddenBatchMint",
      "type": "error"
    },
    {
      "inputs": [
        {
          "internalType": "address",
          "name": "sender",
          "type": "address"
        },
        {
          "internalType": "uint256",
          "name": "tokenId",
          "type": "uint256"
        },
        {
          "internalType": "address",
          "name": "owner",
          "type": "address"
        }
      ],
      "name": "ERC721IncorrectOwner",
      "type": "error"
    },
    {
      "inputs": [
        {
          "internalType": "address",
          "name": "operator",
          "type": "address"
        },
        {
          "internalType": "uint256",
          "name": "tokenId",
          "type": "uint256"
        }
      ],
      "name": "ERC721InsufficientApproval",
      "type": "error"
    },
    {
      "inputs": [
        {
          "internalType": "address",
          "name": "approver",
          "type": "address"
        }
      ],
      "name": "ERC721InvalidApprover",
      "type": "error"
    },
    {
      "inputs": [
        {
          "internalType": "address",
          "name": "operator",
          "type": "address"
        }
      ],
      "name": "ERC721InvalidOperator",
      "type": "error"
    },
    {
      "inputs": [
        {
          "internalType": "address",
          "name": "owner",
          "type": "address"
        }
      ],
      "name": "ERC721InvalidOwner",
      "type": "error"
    },
    {
      "inputs": [
        {
          "internalType": "address",
          "name": "receiver",
          "type": "address"
        }
      ],
      "name": "ERC721InvalidReceiver",
      "type": "error"
    },
    {
      "inputs": [
        {
          "internalType": "address",
          "name": "sender",
          "type": "address"
        }
      ],
      "name": "ERC721InvalidSender",
      "type": "error"
    },
    {
      "inputs": [
        {
          "internalType": "uint256",
          "name": "tokenId",
          "type": "uint256"
        }
      ],
      "name": "ERC721NonexistentToken",
      "type": "error"
    },
    {
      "inputs": [
        {
          "internalType": "address",
          "name": "owner",
          "type": "address"
        },
        {
          "internalType": "uint256",
          "name": "index",
          "type": "uint256"
        }
      ],
      "name": "ERC721OutOfBoundsIndex",
      "type": "error"
    },
    {
      "inputs": [],
      "name": "EnforcedPause",
      "type": "error"
    },
    {
      "inputs": [],
      "name": "ExpectedPause",
      "type": "error"
    },
    {
      "inputs": [],
      "name": "FailedInnerCall",
      "type": "error"
    },
    {
      "inputs": [
        {
          "internalType": "uint256",
          "name": "requiredValue",
          "type": "uint256"
        },
        {
          "internalType": "uint256",
          "name": "passedValue",
          "type": "uint256"
        }
      ],
      "name": "InsufficientMsgValue",
      "type": "error"
    },
    {
      "inputs": [],
      "name": "InvalidInitialization",
      "type": "error"
    },
    {
      "inputs": [],
      "name": "NotInitializing",
      "type": "error"
    },
    {
      "inputs": [],
      "name": "UUPSUnauthorizedCallContext",
      "type": "error"
    },
    {
      "inputs": [
        {
          "internalType": "bytes32",
          "name": "slot",
          "type": "bytes32"
        }
      ],
      "name": "UUPSUnsupportedProxiableUUID",
      "type": "error"
    },
    {
      "anonymous": false,
      "inputs": [
        {
          "indexed": true,
          "internalType": "address",
          "name": "owner",
          "type": "address"
        },
        {
          "indexed": true,
          "internalType": "address",
          "name": "approved",
          "type": "address"
        },
        {
          "indexed": true,
          "internalType": "uint256",
          "name": "tokenId",
          "type": "uint256"
        }
      ],
      "name": "Approval",
      "type": "event"
    },
    {
      "anonymous": false,
      "inputs": [
        {
          "indexed": true,
          "internalType": "address",
          "name": "owner",
          "type": "address"
        },
        {
          "indexed": true,
          "internalType": "address",
          "name": "operator",
          "type": "address"
        },
        {
          "indexed": false,
          "internalType": "bool",
          "name": "approved",
          "type": "bool"
        }
      ],
      "name": "ApprovalForAll",
      "type": "event"
    },
    {
      "anonymous": false,
      "inputs": [
        {
          "indexed": false,
          "internalType": "uint64",
          "name": "version",
          "type": "uint64"
        }
      ],
      "name": "Initialized",
      "type": "event"
    },
    {
      "anonymous": false,
      "inputs": [
        {
          "indexed": false,
          "internalType": "uint256",
          "name": "_tokenId",
          "type": "uint256"
        }
      ],
      "name": "MetadataUpdate",
      "type": "event"
    },
    {
      "anonymous": false,
      "inputs": [
        {
          "indexed": false,
          "internalType": "address",
          "name": "account",
          "type": "address"
        }
      ],
      "name": "Paused",
      "type": "event"
    },
    {
      "anonymous": false,
      "inputs": [
        {
          "indexed": true,
          "internalType": "bytes32",
          "name": "role",
          "type": "bytes32"
        },
        {
          "indexed": true,
          "internalType": "bytes32",
          "name": "previousAdminRole",
          "type": "bytes32"
        },
        {
          "indexed": true,
          "internalType": "bytes32",
          "name": "newAdminRole",
          "type": "bytes32"
        }
      ],
      "name": "RoleAdminChanged",
      "type": "event"
    },
    {
      "anonymous": false,
      "inputs": [
        {
          "indexed": true,
          "internalType": "bytes32",
          "name": "role",
          "type": "bytes32"
        },
        {
          "indexed": true,
          "internalType": "address",
          "name": "account",
          "type": "address"
        },
        {
          "indexed": true,
          "internalType": "address",
          "name": "sender",
          "type": "address"
        }
      ],
      "name": "RoleGranted",
      "type": "event"
    },
    {
      "anonymous": false,
      "inputs": [
        {
          "indexed": true,
          "internalType": "bytes32",
          "name": "role",
          "type": "bytes32"
        },
        {
          "indexed": true,
          "internalType": "address",
          "name": "account",
          "type": "address"
        },
        {
          "indexed": true,
          "internalType": "address",
          "name": "sender",
          "type": "address"
        }
      ],
      "name": "RoleRevoked",
      "type": "event"
    },
    {
      "anonymous": false,
      "inputs": [
        {
          "indexed": true,
          "internalType": "address",
          "name": "from",
          "type": "address"
        },
        {
          "indexed": true,
          "internalType": "address",
          "name": "to",
          "type": "address"
        },
        {
          "indexed": true,
          "internalType": "uint256",
          "name": "tokenId",
          "type": "uint256"
        }
      ],
      "name": "Transfer",
      "type": "event"
    },
    {
      "anonymous": false,
      "inputs": [
        {
          "indexed": true,
          "internalType": "address",
          "name": "claimAddress",
          "type": "address"
        },
        {
          "indexed": false,
          "internalType": "uint256",
          "name": "tokenId",
          "type": "uint256"
        },
        {
          "indexed": false,
          "internalType": "uint256",
          "name": "treatAmount",
          "type": "uint256"
        },
        {
          "indexed": false,
          "internalType": "address",
          "name": "treatTokenAddress",
          "type": "address"
        },
        {
          "indexed": false,
          "internalType": "string",
          "name": "treatMetadata",
          "type": "string"
        }
      ],
      "name": "TreatClaimed",
      "type": "event"
    },
    {
      "anonymous": false,
      "inputs": [
        {
          "indexed": true,
          "internalType": "address",
          "name": "destroyer",
          "type": "address"
        },
        {
          "indexed": true,
          "internalType": "uint256",
          "name": "tokenId",
          "type": "uint256"
        },
        {
          "indexed": false,
          "internalType": "uint256",
          "name": "treatAmount",
          "type": "uint256"
        },
        {
          "indexed": false,
          "internalType": "address",
          "name": "treatTokenAddress",
          "type": "address"
        },
        {
          "indexed": false,
          "internalType": "uint256",
          "name": "destroyReward",
          "type": "uint256"
        }
      ],
      "name": "TreatDestroyed",
      "type": "event"
    },
    {
      "anonymous": false,
      "inputs": [
        {
          "indexed": true,
          "internalType": "address",
          "name": "from",
          "type": "address"
        },
        {
          "indexed": true,
          "internalType": "address",
          "name": "to",
          "type": "address"
        },
        {
          "indexed": false,
          "internalType": "uint256",
          "name": "tokenId",
          "type": "uint256"
        },
        {
          "indexed": true,
          "internalType": "uint256",
          "name": "expiry",
          "type": "uint256"
        },
        {
          "indexed": false,
          "internalType": "uint256",
          "name": "treatAmount",
          "type": "uint256"
        },
        {
          "indexed": false,
          "internalType": "address",
          "name": "treatTokenAddress",
          "type": "address"
        },
        {
          "indexed": false,
          "internalType": "string",
          "name": "treatMetadata",
          "type": "string"
        }
      ],
      "name": "TreatMinted",
      "type": "event"
    },
    {
      "anonymous": false,
      "inputs": [
        {
          "indexed": false,
          "internalType": "address",
          "name": "account",
          "type": "address"
        }
      ],
      "name": "Unpaused",
      "type": "event"
    },
    {
      "anonymous": false,
      "inputs": [
        {
          "indexed": true,
          "internalType": "address",
          "name": "implementation",
          "type": "address"
        }
      ],
      "name": "Upgraded",
      "type": "event"
    },
    {
      "inputs": [],
      "name": "ADMIN_ROLE",
      "outputs": [
        {
          "internalType": "bytes32",
          "name": "",
          "type": "bytes32"
        }
      ],
      "stateMutability": "view",
      "type": "function"
    },
    {
      "inputs": [],
      "name": "DEFAULT_ADMIN_ROLE",
      "outputs": [
        {
          "internalType": "bytes32",
          "name": "",
          "type": "bytes32"
        }
      ],
      "stateMutability": "view",
      "type": "function"
    },
    {
      "inputs": [],
      "name": "MINTER_ROLE",
      "outputs": [
        {
          "internalType": "bytes32",
          "name": "",
          "type": "bytes32"
        }
      ],
      "stateMutability": "view",
      "type": "function"
    },
    {
      "inputs": [],
      "name": "PAUSER_ROLE",
      "outputs": [
        {
          "internalType": "bytes32",
          "name": "",
          "type": "bytes32"
        }
      ],
      "stateMutability": "view",
      "type": "function"
    },
    {
      "inputs": [],
      "name": "UPGRADER_ROLE",
      "outputs": [
        {
          "internalType": "bytes32",
          "name": "",
          "type": "bytes32"
        }
      ],
      "stateMutability": "view",
      "type": "function"
    },
    {
      "inputs": [],
      "name": "UPGRADE_INTERFACE_VERSION",
      "outputs": [
        {
          "internalType": "string",
          "name": "",
          "type": "string"
        }
      ],
      "stateMutability": "view",
      "type": "function"
    },
    {
      "inputs": [],
      "name": "_nextTokenId",
      "outputs": [
        {
          "internalType": "uint256",
          "name": "",
          "type": "uint256"
        }
      ],
      "stateMutability": "view",
      "type": "function"
    },
    {
      "inputs": [
        {
          "internalType": "address",
          "name": "to",
          "type": "address"
        },
        {
          "internalType": "uint256",
          "name": "tokenId",
          "type": "uint256"
        }
      ],
      "name": "approve",
      "outputs": [],
      "stateMutability": "nonpayable",
      "type": "function"
    },
    {
      "inputs": [
        {
          "internalType": "address",
          "name": "owner",
          "type": "address"
        }
      ],
      "name": "balanceOf",
      "outputs": [
        {
          "internalType": "uint256",
          "name": "",
          "type": "uint256"
        }
      ],
      "stateMutability": "view",
      "type": "function"
    },
    {
      "inputs": [
        {
          "internalType": "uint256",
          "name": "tokenId",
          "type": "uint256"
        }
      ],
      "name": "burn",
      "outputs": [],
      "stateMutability": "nonpayable",
      "type": "function"
    },
    {
      "inputs": [],
      "name": "burnRewardFee",
      "outputs": [
        {
          "internalType": "uint256",
          "name": "",
          "type": "uint256"
        }
      ],
      "stateMutability": "view",
      "type": "function"
    },
    {
      "inputs": [
        {
          "internalType": "uint256",
          "name": "tokenId",
          "type": "uint256"
        }
      ],
      "name": "burnTreat",
      "outputs": [],
      "stateMutability": "nonpayable",
      "type": "function"
    },
    {
      "inputs": [
        {
          "internalType": "uint256",
          "name": "amount",
          "type": "uint256"
        }
      ],
      "name": "calculateBurnRewardFee",
      "outputs": [
        {
          "internalType": "uint256",
          "name": "",
          "type": "uint256"
        }
      ],
      "stateMutability": "view",
      "type": "function"
    },
    {
      "inputs": [
        {
          "internalType": "uint256",
          "name": "amount",
          "type": "uint256"
        }
      ],
      "name": "calculatePlatformFee",
      "outputs": [
        {
          "internalType": "uint256",
          "name": "",
          "type": "uint256"
        }
      ],
      "stateMutability": "view",
      "type": "function"
    },
    {
      "inputs": [
        {
          "internalType": "uint256",
          "name": "tokenId",
          "type": "uint256"
        }
      ],
      "name": "claimTreat",
      "outputs": [],
      "stateMutability": "nonpayable",
      "type": "function"
    },
    {
      "inputs": [
        {
          "internalType": "uint256",
          "name": "tokenId",
          "type": "uint256"
        },
        {
          "internalType": "address",
          "name": "claimAddress",
          "type": "address"
        }
      ],
      "name": "claimTreatAtAddress",
      "outputs": [],
      "stateMutability": "nonpayable",
      "type": "function"
    },
    {
      "inputs": [],
      "name": "getAllTreats",
      "outputs": [
        {
          "internalType": "uint256[]",
          "name": "",
          "type": "uint256[]"
        }
      ],
      "stateMutability": "view",
      "type": "function"
    },
    {
      "inputs": [
        {
          "internalType": "address",
          "name": "owner",
          "type": "address"
        }
      ],
      "name": "getAllTreatsOfOwner",
      "outputs": [
        {
          "internalType": "uint256[]",
          "name": "",
          "type": "uint256[]"
        }
      ],
      "stateMutability": "view",
      "type": "function"
    },
    {
      "inputs": [
        {
          "internalType": "uint256",
          "name": "tokenId",
          "type": "uint256"
        }
      ],
      "name": "getApproved",
      "outputs": [
        {
          "internalType": "address",
          "name": "",
          "type": "address"
        }
      ],
      "stateMutability": "view",
      "type": "function"
    },
    {
      "inputs": [
        {
          "internalType": "address",
          "name": "issuer",
          "type": "address"
        }
      ],
      "name": "getIssuedTreats",
      "outputs": [
        {
          "internalType": "uint256[]",
          "name": "",
          "type": "uint256[]"
        }
      ],
      "stateMutability": "view",
      "type": "function"
    },
    {
      "inputs": [
        {
          "internalType": "bytes32",
          "name": "role",
          "type": "bytes32"
        }
      ],
      "name": "getRoleAdmin",
      "outputs": [
        {
          "internalType": "bytes32",
          "name": "",
          "type": "bytes32"
        }
      ],
      "stateMutability": "view",
      "type": "function"
    },
    {
      "inputs": [
        {
          "internalType": "uint256",
          "name": "tokenId",
          "type": "uint256"
        }
      ],
      "name": "getTreatInfo",
      "outputs": [
        {
          "components": [
            {
              "internalType": "uint256",
              "name": "expiry",
              "type": "uint256"
            },
            {
              "internalType": "uint256",
              "name": "amount",
              "type": "uint256"
            },
            {
              "internalType": "address",
              "name": "tokenAddress",
              "type": "address"
            },
            {
              "internalType": "enum TokenTreat.TreatStatus",
              "name": "status",
              "type": "uint8"
            },
            {
              "internalType": "address",
              "name": "refundTreasury",
              "type": "address"
            },
            {
              "internalType": "string",
              "name": "treatMetadata",
              "type": "string"
            },
            {
              "internalType": "bool",
              "name": "burnOnClaim",
              "type": "bool"
            },
            {
              "internalType": "bool",
              "name": "transferable",
              "type": "bool"
            }
          ],
          "internalType": "struct TokenTreat.TreatInfo",
          "name": "treatData",
          "type": "tuple"
        },
        {
          "internalType": "string",
          "name": "tokenUri",
          "type": "string"
        }
      ],
      "stateMutability": "view",
      "type": "function"
    },
    {
      "inputs": [
        {
          "internalType": "bytes32",
          "name": "role",
          "type": "bytes32"
        },
        {
          "internalType": "address",
          "name": "account",
          "type": "address"
        }
      ],
      "name": "grantRole",
      "outputs": [],
      "stateMutability": "nonpayable",
      "type": "function"
    },
    {
      "inputs": [
        {
          "internalType": "bytes32",
          "name": "role",
          "type": "bytes32"
        },
        {
          "internalType": "address",
          "name": "account",
          "type": "address"
        }
      ],
      "name": "hasRole",
      "outputs": [
        {
          "internalType": "bool",
          "name": "",
          "type": "bool"
        }
      ],
      "stateMutability": "view",
      "type": "function"
    },
    {
      "inputs": [
        {
          "internalType": "address",
          "name": "_owner",
          "type": "address"
        },
        {
          "internalType": "address",
          "name": "minter",
          "type": "address"
        }
      ],
      "name": "initialize",
      "outputs": [],
      "stateMutability": "nonpayable",
      "type": "function"
    },
    {
      "inputs": [
        {
          "internalType": "address",
          "name": "owner",
          "type": "address"
        },
        {
          "internalType": "address",
          "name": "operator",
          "type": "address"
        }
      ],
      "name": "isApprovedForAll",
      "outputs": [
        {
          "internalType": "bool",
          "name": "",
          "type": "bool"
        }
      ],
      "stateMutability": "view",
      "type": "function"
    },
    {
      "inputs": [
        {
          "internalType": "address",
          "name": "to",
          "type": "address"
        },
        {
          "internalType": "string",
          "name": "uri",
          "type": "string"
        },
        {
          "internalType": "uint256",
          "name": "expiry",
          "type": "uint256"
        },
        {
          "internalType": "uint256",
          "name": "treatAmount",
          "type": "uint256"
        },
        {
          "internalType": "address",
          "name": "treatTokenAddress",
          "type": "address"
        },
        {
          "internalType": "address",
          "name": "refundTreasury",
          "type": "address"
        },
        {
          "internalType": "bool",
          "name": "burnOnClaim",
          "type": "bool"
        },
        {
          "internalType": "bool",
          "name": "transferable",
          "type": "bool"
        },
        {
          "internalType": "string",
          "name": "treatMetadata",
          "type": "string"
        }
      ],
      "name": "mintTreat",
      "outputs": [],
      "stateMutability": "payable",
      "type": "function"
    },
    {
      "inputs": [],
      "name": "name",
      "outputs": [
        {
          "internalType": "string",
          "name": "",
          "type": "string"
        }
      ],
      "stateMutability": "view",
      "type": "function"
    },
    {
      "inputs": [
        {
          "internalType": "uint256",
          "name": "tokenId",
          "type": "uint256"
        }
      ],
      "name": "ownerOf",
      "outputs": [
        {
          "internalType": "address",
          "name": "",
          "type": "address"
        }
      ],
      "stateMutability": "view",
      "type": "function"
    },
    {
      "inputs": [],
      "name": "pause",
      "outputs": [],
      "stateMutability": "nonpayable",
      "type": "function"
    },
    {
      "inputs": [],
      "name": "paused",
      "outputs": [
        {
          "internalType": "bool",
          "name": "",
          "type": "bool"
        }
      ],
      "stateMutability": "view",
      "type": "function"
    },
    {
      "inputs": [],
      "name": "platformFee",
      "outputs": [
        {
          "internalType": "uint256",
          "name": "",
          "type": "uint256"
        }
      ],
      "stateMutability": "view",
      "type": "function"
    },
    {
      "inputs": [],
      "name": "proxiableUUID",
      "outputs": [
        {
          "internalType": "bytes32",
          "name": "",
          "type": "bytes32"
        }
      ],
      "stateMutability": "view",
      "type": "function"
    },
    {
      "inputs": [
        {
          "internalType": "bytes32",
          "name": "role",
          "type": "bytes32"
        },
        {
          "internalType": "address",
          "name": "callerConfirmation",
          "type": "address"
        }
      ],
      "name": "renounceRole",
      "outputs": [],
      "stateMutability": "nonpayable",
      "type": "function"
    },
    {
      "inputs": [
        {
          "internalType": "bytes32",
          "name": "role",
          "type": "bytes32"
        },
        {
          "internalType": "address",
          "name": "account",
          "type": "address"
        }
      ],
      "name": "revokeRole",
      "outputs": [],
      "stateMutability": "nonpayable",
      "type": "function"
    },
    {
      "inputs": [
        {
          "internalType": "address",
          "name": "from",
          "type": "address"
        },
        {
          "internalType": "address",
          "name": "to",
          "type": "address"
        },
        {
          "internalType": "uint256",
          "name": "tokenId",
          "type": "uint256"
        }
      ],
      "name": "safeTransferFrom",
      "outputs": [],
      "stateMutability": "nonpayable",
      "type": "function"
    },
    {
      "inputs": [
        {
          "internalType": "address",
          "name": "from",
          "type": "address"
        },
        {
          "internalType": "address",
          "name": "to",
          "type": "address"
        },
        {
          "internalType": "uint256",
          "name": "tokenId",
          "type": "uint256"
        },
        {
          "internalType": "bytes",
          "name": "data",
          "type": "bytes"
        }
      ],
      "name": "safeTransferFrom",
      "outputs": [],
      "stateMutability": "nonpayable",
      "type": "function"
    },
    {
      "inputs": [
        {
          "internalType": "address",
          "name": "operator",
          "type": "address"
        },
        {
          "internalType": "bool",
          "name": "approved",
          "type": "bool"
        }
      ],
      "name": "setApprovalForAll",
      "outputs": [],
      "stateMutability": "nonpayable",
      "type": "function"
    },
    {
      "inputs": [
        {
          "internalType": "uint256",
          "name": "fee",
          "type": "uint256"
        }
      ],
      "name": "setPlatformFee",
      "outputs": [],
      "stateMutability": "nonpayable",
      "type": "function"
    },
    {
      "inputs": [
        {
          "internalType": "uint256",
          "name": "fee",
          "type": "uint256"
        }
      ],
      "name": "setRewardFee",
      "outputs": [],
      "stateMutability": "nonpayable",
      "type": "function"
    },
    {
      "inputs": [
        {
          "internalType": "bytes4",
          "name": "interfaceId",
          "type": "bytes4"
        }
      ],
      "name": "supportsInterface",
      "outputs": [
        {
          "internalType": "bool",
          "name": "",
          "type": "bool"
        }
      ],
      "stateMutability": "view",
      "type": "function"
    },
    {
      "inputs": [],
      "name": "symbol",
      "outputs": [
        {
          "internalType": "string",
          "name": "",
          "type": "string"
        }
      ],
      "stateMutability": "view",
      "type": "function"
    },
    {
      "inputs": [
        {
          "internalType": "uint256",
          "name": "index",
          "type": "uint256"
        }
      ],
      "name": "tokenByIndex",
      "outputs": [
        {
          "internalType": "uint256",
          "name": "",
          "type": "uint256"
        }
      ],
      "stateMutability": "view",
      "type": "function"
    },
    {
      "inputs": [
        {
          "internalType": "address",
          "name": "owner",
          "type": "address"
        },
        {
          "internalType": "uint256",
          "name": "index",
          "type": "uint256"
        }
      ],
      "name": "tokenOfOwnerByIndex",
      "outputs": [
        {
          "internalType": "uint256",
          "name": "",
          "type": "uint256"
        }
      ],
      "stateMutability": "view",
      "type": "function"
    },
    {
      "inputs": [
        {
          "internalType": "uint256",
          "name": "tokenId",
          "type": "uint256"
        }
      ],
      "name": "tokenURI",
      "outputs": [
        {
          "internalType": "string",
          "name": "",
          "type": "string"
        }
      ],
      "stateMutability": "view",
      "type": "function"
    },
    {
      "inputs": [],
      "name": "totalBurnRewardFeeDistributed",
      "outputs": [
        {
          "internalType": "uint256",
          "name": "",
          "type": "uint256"
        }
      ],
      "stateMutability": "view",
      "type": "function"
    },
    {
      "inputs": [],
      "name": "totalBurntTreats",
      "outputs": [
        {
          "internalType": "uint256",
          "name": "",
          "type": "uint256"
        }
      ],
      "stateMutability": "view",
      "type": "function"
    },
    {
      "inputs": [],
      "name": "totalClaimedTreats",
      "outputs": [
        {
          "internalType": "uint256",
          "name": "",
          "type": "uint256"
        }
      ],
      "stateMutability": "view",
      "type": "function"
    },
    {
      "inputs": [],
      "name": "totalPlatformFeeCollected",
      "outputs": [
        {
          "internalType": "uint256",
          "name": "",
          "type": "uint256"
        }
      ],
      "stateMutability": "view",
      "type": "function"
    },
    {
      "inputs": [],
      "name": "totalSupply",
      "outputs": [
        {
          "internalType": "uint256",
          "name": "",
          "type": "uint256"
        }
      ],
      "stateMutability": "view",
      "type": "function"
    },
    {
      "inputs": [
        {
          "internalType": "address",
          "name": "from",
          "type": "address"
        },
        {
          "internalType": "address",
          "name": "to",
          "type": "address"
        },
        {
          "internalType": "uint256",
          "name": "tokenId",
          "type": "uint256"
        }
      ],
      "name": "transferFrom",
      "outputs": [],
      "stateMutability": "nonpayable",
      "type": "function"
    },
    {
      "inputs": [
        {
          "internalType": "uint256",
          "name": "",
          "type": "uint256"
        }
      ],
      "name": "treatInfo",
      "outputs": [
        {
          "internalType": "uint256",
          "name": "expiry",
          "type": "uint256"
        },
        {
          "internalType": "uint256",
          "name": "amount",
          "type": "uint256"
        },
        {
          "internalType": "address",
          "name": "tokenAddress",
          "type": "address"
        },
        {
          "internalType": "enum TokenTreat.TreatStatus",
          "name": "status",
          "type": "uint8"
        },
        {
          "internalType": "address",
          "name": "refundTreasury",
          "type": "address"
        },
        {
          "internalType": "string",
          "name": "treatMetadata",
          "type": "string"
        },
        {
          "internalType": "bool",
          "name": "burnOnClaim",
          "type": "bool"
        },
        {
          "internalType": "bool",
          "name": "transferable",
          "type": "bool"
        }
      ],
      "stateMutability": "view",
      "type": "function"
    },
    {
      "inputs": [
        {
          "internalType": "address",
          "name": "",
          "type": "address"
        },
        {
          "internalType": "uint256",
          "name": "",
          "type": "uint256"
        }
      ],
      "name": "treatIssuers",
      "outputs": [
        {
          "internalType": "uint256",
          "name": "",
          "type": "uint256"
        }
      ],
      "stateMutability": "view",
      "type": "function"
    },
    {
      "inputs": [],
      "name": "unpause",
      "outputs": [],
      "stateMutability": "nonpayable",
      "type": "function"
    },
    {
      "inputs": [
        {
          "internalType": "address",
          "name": "issuer",
          "type": "address"
        },
        {
          "internalType": "uint256",
          "name": "tokenId",
          "type": "uint256"
        }
      ],
      "name": "updateTokenIssuer",
      "outputs": [],
      "stateMutability": "nonpayable",
      "type": "function"
    },
    {
      "inputs": [
        {
          "internalType": "uint256",
          "name": "tokenId",
          "type": "uint256"
        },
        {
          "internalType": "string",
          "name": "uri",
          "type": "string"
        }
      ],
      "name": "updateTokenUri",
      "outputs": [],
      "stateMutability": "nonpayable",
      "type": "function"
    },
    {
      "inputs": [
        {
          "internalType": "address",
          "name": "newImplementation",
          "type": "address"
        },
        {
          "internalType": "bytes",
          "name": "data",
          "type": "bytes"
        }
      ],
      "name": "upgradeToAndCall",
      "outputs": [],
      "stateMutability": "payable",
      "type": "function"
    }
  ],
  "bytecode": "0x60a08060405234620000d157306080527ff0c57e16840df040f15088dc2f81fe391c3923bec73e23a9662efc9c229c6a009081549060ff8260401c16620000c257506001600160401b036002600160401b0319828216016200007c575b60405161426c9081620000d7823960805181818161136901526114300152f35b6001600160401b031990911681179091556040519081527fc7f505b2f371ae2175ee4913f4499e1f2633a7b5936321eed1cdaeb6115181d290602090a13880806200005c565b63f92ee8a960e01b8152600490fd5b600080fdfe608080604052600436101561001357600080fd5b60003560e01c90816301ffc9a7146128155750806306fdde0314612772578063081812fc14612727578063095ea7b3146126405780630cbab4f71461261c5780630f9520d0146125bd5780631164a5581461256557806311c9c32e1461229557806312e8e2c31461227457806318160ddd1461224957806323b872dd14612232578063248a9ca3146121f657806326232a2e146121d85780632f2ff15d1461218c5780632f745c591461216557806336568abe1461211e5780633f4ba83a146120a7578063400cf3c414611f7257806341a2ac7014611f5157806342842e0e14611f2357806342966c6814611b9d578063485cc955146116765780634a60f620146116585780634f1ef286146113f15780634f6ccce7146113d357806352d1902d1461135657806359b9e93c146113385780635c975abb146113085780636352211e146112d8578063665dc6ab14611160578063666610691461114257806370a082311461111757806375b238fc146110dc5780637f23007b14610eeb5780638259554b14610e845780638456cb5914610e1d5780638fa12c3e14610de357806391d1485414610d8957806395d89b4114610cbb5780639a2241bb14610c9d578063a217fddf14610c81578063a22cb46514610bd8578063accaa6c514610bba578063ad3cb1cc14610b74578063b61dfeca14610ab9578063b6fd17f31461057e578063b88d4fde14610525578063c0c79eb8146104a1578063c60c3bbb14610483578063c87b56dd1461044c578063ca4d46031461041f578063d31af484146103e4578063d5391393146103a9578063d547741f1461035b578063e63ab1e914610320578063e985e9c5146102d25763f72c0d8b1461029257600080fd5b346102cd5760003660031901126102cd5760206040517f189ab7a9244df0848122154315af71fe140f3db0fe014031783b0946b8c9d2e38152f35b600080fd5b346102cd5760403660031901126102cd576102eb6128f4565b6102fc6102f661290a565b9161295b565b9060018060a01b0316600052602052602060ff604060002054166040519015158152f35b346102cd5760003660031901126102cd5760206040517f65d7a28e3265b37a6474929f336521b332c1681b933f6cb9f3376673440d862a8152f35b346102cd5760403660031901126102cd576103a760043561037a61290a565b90806000526000805160206141378339815191526020526103a2600160406000200154612cbb565b612f4b565b005b346102cd5760003660031901126102cd5760206040517f9f2df0fed2c77648de5860a4cc508cd0818c85b8b8a1ab4ceeef8d981c8956a68152f35b346102cd5760403660031901126102cd576024356001600160401b0381116102cd576104176103a7913690600401612b01565b600435613ec2565b346102cd5760203660031901126102cd5760206127106104436004546004356136a1565b04604051908152f35b346102cd5760203660031901126102cd5761047f61046b600435613e8a565b6040519182916020835260208301906128b4565b0390f35b346102cd5760003660031901126102cd576020600554604051908152f35b346102cd576020806003193601126102cd576001600160a01b036104c36128f4565b1660005260098152604060002090604051908181845491828152019360005281600020916000905b82821061050e5761047f8561050281890382612ac5565b60405191829182612920565b8354865294850194600193840193909101906104eb565b346102cd5760803660031901126102cd5761053e6128f4565b61054661290a565b90604435606435926001600160401b0384116102cd5761056d6103a7943690600401612b01565b92610579838383613003565b613410565b6101203660031901126102cd576105936128f4565b6024356001600160401b0381116102cd576105b2903690600401612b01565b6064356084356001600160a01b03811681036102cd5760a435916001600160a01b03831683036102cd5760c4359384151585036102cd5760e43580151581036102cd57610104356001600160401b0381116102cd57610615903690600401612b01565b94426044351115610a635761063a612710610632600354876136a1565b0480956136b4565b6001600160a01b03861615610a31576040516323b872dd60e01b81523360048201523060248201526044810182905260208160648160006001600160a01b038c165af18015610a25576106a1926106989288926109f7575b506136d9565b946005546136b4565b600555600054966106b1886136e6565b600055604051916106c183612a73565b604435835285602084015260018060a01b03871660408401526001606084015260018060a01b031660808301528660a0830152151560c082015281151560e08201528660005260026020526040600020815181556020820151600182015560018060a01b03604083015116600282015490606084015160048110156109e1576001600160a81b03199092161760a091821b60ff60a01b1617600283015560808301516003830180546001600160a01b0319166001600160a01b03929092169190911790558201518051906001600160401b0382116109cb576107a66004840154612b55565b601f8111610984575b50602090601f831160011461090957928260e09360059361ff00999897966000926108fe575b50508160011b916000199060031b1c19161760048201555b019161080b60c08201511515849060ff801983541691151516179055565b01518154851990811691151560081b9095161790556108e4576108539086600052600260205260056040600020016101008482541617905561084d878961374c565b86613ec2565b84600052600260205260056040600020019081541690555b336000526009602052610882846040600020613729565b604051938452602084015260018060a01b03166040830152608060608301527f3bb5b3cbe3e599032da0d641669452e9441356969485e2571a9697c1fc60bb646044359360018060a01b031692806108df339460808301906128b4565b0390a4005b6108f991506108f3868861374c565b85613ec2565b61086b565b015190508e806107d5565b906004840160005260206000209160005b601f198516811061096c57508360059361ff00999897969360019360e097601f19811610610953575b505050811b0160048201556107ed565b015160001960f88460031b161c191690558e8080610943565b9192602060018192868501518155019401920161091a565b600484016000526020600020601f840160051c8101602085106109c4575b601f830160051c820181106109b85750506107af565b600081556001016109a2565b50806109a2565b634e487b7160e01b600052604160045260246000fd5b634e487b7160e01b600052602160045260246000fd5b610a179060203d8111610a1e575b610a0f8183612ac5565b8101906136c1565b508c610692565b503d610a05565b6040513d6000823e3d90fd5b803410610a4557610698856106a1926136d9565b60449060405190631f2dda7760e21b82526004820152346024820152fd5b60405162461bcd60e51b815260206004820152602860248201527f546f6b656e54726561743a20657870697279206d75737420626520696e207468604482015267652066757475726560c01b6064820152608490fd5b346102cd5760203660031901126102cd5760043560005260026020526040600020805460018201549160ff610b5a60028301549260018060a01b0393610b448560038401541691600560405194610b1e86610b178160048501612b8f565b0387612ac5565b015496604051998a998a5260208a01528116604089015285606089019160a01c16612b48565b60808601526101008060a08701528501906128b4565b91818116151560c085015260081c16151560e08301520390f35b346102cd5760003660031901126102cd5761047f604051610b9481612aaa565b60058152640352e302e360dc1b60208201526040519182916020835260208301906128b4565b346102cd5760003660031901126102cd576020600454604051908152f35b346102cd5760403660031901126102cd57610bf16128f4565b60243590811515908183036102cd576001600160a01b0316918215610c6857610c3a90610c1d3361295b565b8460005260205260406000209060ff801983541691151516179055565b6040519081527f17307eab39ab6107e8899845ad3d59bd9653f200f220920489ca2b5937696c3160203392a3005b604051630b61174360e31b815260048101849052602490fd5b346102cd5760003660031901126102cd57602060405160008152f35b346102cd5760003660031901126102cd576020600854604051908152f35b346102cd5760003660031901126102cd5760405160006000805160206141f78339815191528054610ceb81612b55565b80855291600191808316908115610d5f5750600114610d15575b61047f8561046b81870382612ac5565b600090815292506000805160206140b78339815191525b828410610d4757505050810160200161046b8261047f610d05565b80546020858701810191909152909301928101610d2c565b86955061047f9693506020925061046b94915060ff191682840152151560051b8201019293610d05565b346102cd5760403660031901126102cd57610da261290a565b60043560005260008051602061413783398151915260205260406000209060018060a01b0316600052602052602060ff604060002054166040519015158152f35b346102cd5760403660031901126102cd576001600160a01b03610e046128f4565b1660005260096020526103a76024356040600020613729565b346102cd5760003660031901126102cd57610e36612c5f565b610e3e613676565b600080516020614177833981519152600160ff198254161790557f62e78cea01bee320cd4e420270b5ea74000d11b0c9f74754ebdbfc544b05a2586020604051338152a1005b346102cd5760203660031901126102cd57610e9d6128f4565b610ea681612fce565b610eaf81613e44565b9160005b828110610ec8576040518061047f8682612920565b80610ed6610ee6928461352e565b610ee08287613e76565b526136e6565b610eb3565b346102cd576020806003193601126102cd5760043580600052600291828152610f1a6040600020544210613ae0565b8160005282815260ff836040600020015460a01c1660048110156109e1576001610f449114613b2c565b6000828152838252604090208301805460ff60a01b1916600160a11b179055610f6c826133b8565b600083815284835260409020808501546001600160a01b039391908416156110ac57506000848152858252604080822080880154600190910154915163a9059cbb60e01b81526001600160a01b0386166004820152602481019290925290918391839190871690829081604481015b03925af18015610a255761108f575b505b8360005284815260ff60056040600020015416611081575b600754936001850180951161106b5785611066927fa2c73b1f66caf7df780b298e49fea7b834943add97570b5ca734332c5d257c8096600755826000525260406000209584600188015491880154169060046040519687961698019285613b8d565b0390a2005b634e487b7160e01b600052601160045260246000fd5b61108a84613bbb565b611004565b6110a590823d8411610a1e57610a0f8183612ac5565b5085610fea565b600080806001819401548181156110d3575b88881690f1610fec576040513d6000823e3d90fd5b506108fc6110be565b346102cd5760003660031901126102cd5760206040517fa49807205ce4d355092ef5a8a18f56e8913cf4a201fbe287825b095693c217758152f35b346102cd5760203660031901126102cd57602061113a6111356128f4565b612fce565b604051908152f35b346102cd5760003660031901126102cd576020600754604051908152f35b346102cd5760203660031901126102cd57600435600060e060405161118481612a73565b828152826020820152826040820152826060820152826080820152606060a08201528260c082015201528060005260026020526111c5604060002091613e8a565b90604051906111d382612a73565b8054825260018101546020830190815260028201546001600160a01b03808216604086019081529560a09290921c60ff169360608601939160048610156109e15760409761129a8661047f988a985283806003870154169360808a0194855260058d519761124f896112488160048501612b8f565b038a612ac5565b60a08c0198895201549760ff60e060c08d019c8d838d1615159052019960081c16151589528d518e819f9e829f8352519101525160608d0152511660808b01525160a08a0190612b48565b511660c0870152516112ba610100918260e08901526101408801906128b4565b935115159086015251151561012085015283820360208501526128b4565b346102cd5760203660031901126102cd5760206112f66004356133b8565b6040516001600160a01b039091168152f35b346102cd5760003660031901126102cd57602060ff60008051602061417783398151915254166040519015158152f35b346102cd5760003660031901126102cd576020600654604051908152f35b346102cd5760003660031901126102cd577f00000000000000000000000000000000000000000000000000000000000000006001600160a01b031630036113c15760206040517f360894a13ba1a3210667c828492db98dca3e2076cc3735a920a3ca505d382bbc8152f35b60405163703e46dd60e11b8152600490fd5b346102cd5760203660031901126102cd57602061113a60043561359b565b60403660031901126102cd576114056128f4565b6024356001600160401b0381116102cd57611424903690600401612b01565b906001600160a01b03907f0000000000000000000000000000000000000000000000000000000000000000821630811490811561162a575b506113c1573360009081527fab71e3f32666744d246edff3f96e4bdafee2e9867098cdd118a979a7464786a860209081526040909120549092907f189ab7a9244df0848122154315af71fe140f3db0fe014031783b0946b8c9d2e39060ff161561160c57508116916040516352d1902d60e01b81528181600481875afa600091816115dd575b5061150057604051634c9c8ce360e01b815260048101859052602490fd5b9284937f360894a13ba1a3210667c828492db98dca3e2076cc3735a920a3ca505d382bbc908181036115c55750833b156115ac5780546001600160a01b03191682179055604051907fbc7cd75a20ee27fd9adebab32041f755214dbc6bffa90cc0225b39da2e5c2d3b600080a2835115611592575060008381926103a795519101845af461158c6133e0565b916135e4565b925050503461159d57005b63b398979f60e01b8152600490fd5b604051634c9c8ce360e01b815260048101839052602490fd5b60249060405190632a87526960e21b82526004820152fd5b9091508281813d8311611605575b6115f58183612ac5565b810103126102cd575190866114e2565b503d6115eb565b6044906040519063e2517d3f60e01b82523360048301526024820152fd5b9050827f360894a13ba1a3210667c828492db98dca3e2076cc3735a920a3ca505d382bbc541614158461145c565b346102cd5760003660031901126102cd576020600054604051908152f35b346102cd5760403660031901126102cd5761168f6128f4565b61169761290a565b6000805160206141d783398151915254906001600160401b03821680159081611b8d575b6001149081611b83575b159081611b7a575b50611b685760016001600160401b03198316176000805160206141d78339815191525560ff8260401c1615611b3b575b6040519261170a84612aaa565b600a845269151bdad95b951c99585d60b21b60208501526040519361172e85612aaa565b6005855264151c99585d60da1b6020860152611748613647565b611750613647565b8051906001600160401b0382116109cb57819061177b60008051602061409783398151915254612b55565b601f8111611aba575b50602090601f8311600114611a2857600092611a1d575b50508160011b916000199060031b1c191617600080516020614097833981519152555b83516001600160401b0381116109cb576117e66000805160206141f783398151915254612b55565b601f81116119a3575b506020601f821160011461190c57918161188b92611891959460ff98600092611901575b50508160011b916000199060031b1c1916176000805160206141f7833981519152555b61183e613647565b611846613647565b61184e613647565b6000805160206141778339815191528619815416905561186c613647565b611874613647565b61187c613647565b61188581612cee565b50612d7c565b50612e2c565b5060646003556103e860045560401c16156118a857005b68ff0000000000000000196000805160206141d783398151915254166000805160206141d7833981519152557fc7f505b2f371ae2175ee4913f4499e1f2633a7b5936321eed1cdaeb6115181d2602060405160018152a1005b015190508880611813565b601f198216956000805160206141f78339815191526000526000805160206140b78339815191529660005b81811061198b57509260ff976118919695936001938361188b9710611972575b505050811b016000805160206141f783398151915255611836565b015160001960f88460031b161c19169055888080611957565b83830151895560019098019760209384019301611937565b6000805160206141f7833981519152600052601f820160051c6000805160206140b7833981519152019060208310611a07575b601f0160051c6000805160206140b783398151915201905b8181106119fb57506117ef565b600081556001016119ee565b6000805160206140b783398151915291506119d6565b01519050868061179b565b9250600080516020614097833981519152600052600080516020614217833981519152906000935b601f1984168510611a9f576001945083601f19811610611a86575b505050811b01600080516020614097833981519152556117be565b015160001960f88460031b161c19169055868080611a6b565b81810151835560209485019460019093019290910190611a50565b909150600080516020614097833981519152600052601f830160051c6000805160206142178339815191520160208410611b26575b908392915b601f820160051c600080516020614217833981519152018110611b175750611784565b60008155849350600101611af4565b50600080516020614217833981519152611aef565b68ffffffffffffffffff19821668010000000000000001176000805160206141d7833981519152556116fd565b60405163f92ee8a960e01b8152600490fd5b905015846116cd565b303b1591506116c5565b604084901c60ff161591506116bb565b346102cd576020806003193601126102cd5760043590816000526002815260ff60056040600020015460081c1615611ee657611bd7613676565b60008281526000805160206141978339815191528083526040909120546001600160a01b0390811691903315159081611e34575b5050811580159182611e15575b85600052845260406000206bffffffffffffffffffffffff60a01b8154169055846000846000805160206141178339815191528280a415611d505750506000805160206140f783398151915254826000526000805160206140d78339815191528252604060002055611c89826136f5565b6000805160206140f78339815191529182546000199283820191821161106b57826000526000805160206140d783398151915290818152611ccf604060002054936129cd565b90549060031b1c611cfc81611ce3866129cd565b90919082549060031b91821b91600019901b1916179055565b600052526040600020556000526000604081205581548015611d3a570190611d37611d26836129cd565b8154906000199060031b1b19169055565b55005b634e487b7160e01b600052603160045260246000fd5b611d5b575b50611c89565b611d6481612fce565b908360005260008051602061405783398151915280845260406000205490838203611dc3575b50508360005260006040812055600052600080516020614077833981519152825260406000209060005281526000604081205582611d55565b8260005260008051602061407783398151915280865260406000208560005286526040600020549084600052865260406000208360005286528060406000205560005284526040600020558480611d8a565b611e1e8661333f565b611e2784612994565b8054600019019055611c18565b81611e85575b5015611e47578480611c0b565b8382611e655760249060405190637e27328960e01b82526004820152fd5b60405163177e802f60e01b81523360048201526024810191909152604490fd5b33841491508115611ec6575b8115611e9f575b5085611e3a565b9050846000526000805160206141b783398151915284523390604060002054161485611e98565b9050611ed18361295b565b33600052845260ff6040600020541690611e91565b6084906040519062461bcd60e51b82526004820152602260248201526000805160206141578339815191526044820152616c6560f01b6064820152fd5b346102cd576103a7611f3436612a3e565b9060405192611f4284612a8f565b60008452610579838383613003565b346102cd5760203660031901126102cd57611f6a612c25565b600480359055005b346102cd5760403660031901126102cd57600435611f8e61290a565b90611f98816133b8565b6001600160a01b0390339082160361206a57816000526002926020848152611fc66040600020544210613ae0565b8360005284815260ff856040600020015460a01c1660048110156109e1576001611ff09114613b2c565b600084815285825260409020808601805460ff60a01b198116600160a11b179091558416156110ac57506000848152858252604080822080880154600190910154915163a9059cbb60e01b81526001600160a01b038616600482015260248101929092529091839183919087169082908160448101610fdb565b60405162461bcd60e51b81526020600482015260156024820152742a37b5b2b72a3932b0ba1d103737ba1037bbb732b960591b6044820152606490fd5b346102cd5760003660031901126102cd576120c0612c5f565b600080516020614177833981519152805460ff81161561210c5760ff191690557f5db9ee0a495bf2e6ff9c91a7834c1ba4fdd244a5e8aa4e537bd38aeae4b073aa6020604051338152a1005b604051638dfc202b60e01b8152600490fd5b346102cd5760403660031901126102cd5761213761290a565b336001600160a01b03821603612153576103a790600435612f4b565b60405163334bd91960e11b8152600490fd5b346102cd5760403660031901126102cd57602061113a6121836128f4565b6024359061352e565b346102cd5760403660031901126102cd576103a76004356121ab61290a565b90806000526000805160206141378339815191526020526121d3600160406000200154612cbb565b612ed6565b346102cd5760003660031901126102cd576020600354604051908152f35b346102cd5760203660031901126102cd576004356000526000805160206141378339815191526020526020600160406000200154604051908152f35b346102cd576103a761224336612a3e565b91613003565b346102cd5760003660031901126102cd5760206000805160206140f783398151915254604051908152f35b346102cd5760203660031901126102cd5761228d612c25565b600435600355005b346102cd576020806003193601126102cd576004359081600052600290818152604060002054421115612521578260005281815260ff826040600020015460a01c1660048110156109e15760016122ec9114613b2c565b600083815282825260409020808301805460ff60a01b1916600360a01b179055600101546004546127109161232191906136a1565b049061232f826006546136b4565b6006558360005282815261234b826001604060002001546136d9565b600085815284835260409020808501546001600160a01b03929183918216156124d0575050600086815285845260409081902080870154600390910154915163a9059cbb60e01b8082529285166001600160a01b031660048201526024810193909352831691908482806044810103816000875af1918215610a255785926124b3575b506040519081523360048201526024810186905291829060449082906000905af18015610a2557612496575b505b84600052838252600560406000200161ff0019906101008282541617905561242386613bbb565b8560005284835260056040600020019081541690556008546001810180911161106b57600855846000528382526040600020936001850154940154169060405193845283015260408201527f839ff367ffb7ff50b52fd014700a49f0d68c1f2d4ea4363cbe912bd7eaaf487060603392a3005b6124ac90833d8511610a1e57610a0f8183612ac5565b50856123fa565b6124c990833d8511610a1e57610a0f8183612ac5565b50886123ce565b60008093819360038394015416828215612518575bf115610a2557826000811561250f575b600080809381933390f16123fc576040513d6000823e3d90fd5b506108fc6124f5565b506108fc6124e5565b6064906040519062461bcd60e51b82526004820152601d60248201527f546f6b656e54726561743a207472656174206e6f7420657870697265640000006044820152fd5b346102cd5760403660031901126102cd5761257e6128f4565b6001600160a01b03166000908152600960205260409020805460243591908210156102cd576020916125af91612a26565b90546040519160031b1c8152f35b346102cd5760003660031901126102cd576000805160206140f7833981519152546125e781613e44565b9060005b818110612600576040518061047f8582612920565b8061260d6126179261359b565b610ee08286613e76565b6125eb565b346102cd5760203660031901126102cd5760206127106104436003546004356136a1565b346102cd5760403660031901126102cd576126596128f4565b60243561266581613370565b33151580612714575b806126f4575b6126dc576001600160a01b039283169282918491167f8c5be1e5ebec7d5bd14f71427d1e84f3dd0314c0f7b2291e5b200ac8c7c3b925600080a460009081526000805160206141b78339815191526020526040902080546001600160a01b0319169091179055005b60405163a9fbf51f60e01b8152336004820152602490fd5b506126fe8161295b565b3360005260205260ff6040600020541615612674565b506001600160a01b03811633141561266e565b346102cd5760203660031901126102cd5760043561274481613370565b506000526000805160206141b7833981519152602052602060018060a01b0360406000205416604051908152f35b346102cd5760003660031901126102cd57604051600060008051602061409783398151915280546127a281612b55565b80855291600191808316908115610d5f57506001146127cb5761047f8561046b81870382612ac5565b600090815292506000805160206142178339815191525b8284106127fd57505050810160200161046b8261047f610d05565b805460208587018101919091529093019281016127e2565b346102cd5760203660031901126102cd576004359063ffffffff60e01b82168092036102cd57602091637965db0b60e01b8114908115612857575b5015158152f35b63780e9d6360e01b811491508115612871575b5083612850565b6380ac58cd60e01b8114915081156128a3575b8115612892575b508361286a565b6301ffc9a760e01b1490508361288b565b635b5e139f60e01b81149150612884565b919082519283825260005b8481106128e0575050826000602080949584010152601f8019910116010190565b6020818301810151848301820152016128bf565b600435906001600160a01b03821682036102cd57565b602435906001600160a01b03821682036102cd57565b6020908160408183019282815285518094520193019160005b828110612947575050505090565b835185529381019392810192600101612939565b6001600160a01b031660009081527f80bb2b638cc20bc4d0a60d66940f3ab4a00c1d7b313497ca82fb0b4ab00793056020526040902090565b6001600160a01b031660009081527f80bb2b638cc20bc4d0a60d66940f3ab4a00c1d7b313497ca82fb0b4ab00793036020526040902090565b6000805160206140f78339815191528054821015612a10576000527fa42f15e5d656f8155fd7419d740a6073999f19cd6e061449ce4a257150545bf20190600090565b634e487b7160e01b600052603260045260246000fd5b8054821015612a105760005260206000200190600090565b60609060031901126102cd576001600160a01b039060043582811681036102cd579160243590811681036102cd579060443590565b61010081019081106001600160401b038211176109cb57604052565b602081019081106001600160401b038211176109cb57604052565b604081019081106001600160401b038211176109cb57604052565b90601f801991011681019081106001600160401b038211176109cb57604052565b6001600160401b0381116109cb57601f01601f191660200190565b81601f820112156102cd57803590612b1882612ae6565b92612b266040519485612ac5565b828452602083830101116102cd57816000926020809301838601378301015290565b9060048210156109e15752565b90600182811c92168015612b85575b6020831014612b6f57565b634e487b7160e01b600052602260045260246000fd5b91607f1691612b64565b9060009291805491612ba083612b55565b918282526001938481169081600014612c025750600114612bc2575b50505050565b90919394506000526020928360002092846000945b838610612bee575050505001019038808080612bbc565b805485870183015294019385908201612bd7565b9294505050602093945060ff191683830152151560051b01019038808080612bbc565b3360009081527fb7db2dd08fcb62d0c9e08c51941cae53c267786a0b75803fb7960902fc8ef97d602052604081205460ff161561160c5750565b3360009081527f75442b0a96088b5456bc4ed01394c96a4feec0f883c9494257d76b96ab1c9b6b60205260409020547f65d7a28e3265b37a6474929f336521b332c1681b933f6cb9f3376673440d862a9060ff161561160c5750565b8060005260008051602061413783398151915260205260406000203360005260205260ff604060002054161561160c5750565b6001600160a01b031660008181527fb7db2dd08fcb62d0c9e08c51941cae53c267786a0b75803fb7960902fc8ef97d60205260408120549091906000805160206141378339815191529060ff16612d77578280526020526040822081835260205260408220600160ff1982541617905533916000805160206140378339815191528180a4600190565b505090565b6001600160a01b031660008181527fab71e3f32666744d246edff3f96e4bdafee2e9867098cdd118a979a7464786a860205260408120549091907f189ab7a9244df0848122154315af71fe140f3db0fe014031783b0946b8c9d2e3906000805160206141378339815191529060ff16612e26578184526020526040832082845260205260408320600160ff19825416179055600080516020614037833981519152339380a4600190565b50505090565b6001600160a01b031660008181527f549fe2656c81d2947b3b913f0a53b9ea86c71e049f3a1b8aa23c09a8a05cb8d460205260408120549091907f9f2df0fed2c77648de5860a4cc508cd0818c85b8b8a1ab4ceeef8d981c8956a6906000805160206141378339815191529060ff16612e26578184526020526040832082845260205260408320600160ff19825416179055600080516020614037833981519152339380a4600190565b9060009180835260008051602061413783398151915280602052604084209260018060a01b03169283855260205260ff60408520541615600014612e26578184526020526040832082845260205260408320600160ff19825416179055600080516020614037833981519152339380a4600190565b9060009180835260008051602061413783398151915280602052604084209260018060a01b03169283855260205260ff604085205416600014612e2657818452602052604083208284526020526040832060ff1981541690557ff6391f5c32d9c69d2a47ea670b442974b53935d1edc7fd64eb21e047a839171b339380a4600190565b6001600160a01b03811615612fea57612fe690612994565b5490565b6040516322718ad960e21b815260006004820152602490fd5b6001600160a01b0382811693918415613326576000948386526020956002875260409660ff6005898420015460081c16156132ea57613040613676565b858252600080516020614197833981519152968782528589842054169733151580613250575b508815908115613231575b61307a83612994565b80546001019055888552835289842080546001600160a01b0319168617905587858a6000805160206141178339815191528780a41561318c576000805160206140f7833981519152548784526000805160206140d78339815191528352898420556130e4876136f5565b838803613120575b5050505016928383036130ff5750505050565b6064945051926364283d7b60e01b8452600484015260248301526044820152fd5b61312990612fce565b600019810193908411613178578291600080516020614057833981519152918a9452600080516020614077833981519152815283832085845281528784842055878352522055388080806130ec565b634e487b7160e01b83526011600452602483fd5b8784146130e45761319c88612fce565b8784526000805160206140578339815191528084528a852054908282036131ee575b5050878452838a8120558884526000805160206140778339815191528352898420908452825282898120556130e4565b8a86526000805160206140778339815191528086528c872084885286528c872054908c885286528c87208388528652808d882055865284528a85205538806131be565b61323a8961333f565b6132438a612994565b8054600019019055613071565b8061329d575b156132615738613066565b89888a61327e576024915190637e27328960e01b82526004820152fd5b905163177e802f60e01b81523360048201526024810191909152604490fd5b5033891480156132cf575b8061325657508784526000805160206141b7833981519152835233878b8620541614613256565b506132d98961295b565b338552835260ff8a852054166132a8565b60849088519062461bcd60e51b82526004820152602260248201526000805160206141578339815191526044820152616c6560f01b6064820152fd5b604051633250574960e11b815260006004820152602490fd5b6000526000805160206141b783398151915260205260406000206bffffffffffffffffffffffff60a01b8154169055565b600081815260008051602061419783398151915260205260409020546001600160a01b03169081156133a0575090565b60249060405190637e27328960e01b82526004820152fd5b600090815260008051602061419783398151915260205260409020546001600160a01b031690565b3d1561340b573d906133f182612ae6565b916133ff6040519384612ac5565b82523d6000602084013e565b606090565b9190803b61341e5750505050565b61346060018060a01b0380921694604051938493630a85bd0160e11b9687865233600487015216602485015260448401526080606484015260848301906128b4565b03906020816000938185885af1908290826134df575b50506134ae57826134856133e0565b80519190826134a757604051633250574960e11b815260048101839052602490fd5b9050602001fd5b6001600160e01b031916036134c7575038808080612bbc565b60249060405190633250574960e11b82526004820152fd5b909192506020813d8211613526575b816134fb60209383612ac5565b810103126135225751906001600160e01b03198216820361351f5750903880613476565b80fd5b5080fd5b3d91506134ee565b61353781612fce565b8210156135705760018060a01b031660005260008051602061407783398151915260205260406000209060005260205260406000205490565b60405163295f44f760e21b81526001600160a01b039190911660048201526024810191909152604490fd5b6000805160206140f7833981519152548110156135c5576135bb906129cd565b90549060031b1c90565b6044906040519063295f44f760e21b8252600060048301526024820152fd5b9061360b57508051156135f957805190602001fd5b604051630a12f52160e11b8152600490fd5b8151158061363e575b61361c575090565b604051639996b31560e01b81526001600160a01b039091166004820152602490fd5b50803b15613614565b60ff6000805160206141d78339815191525460401c161561366457565b604051631afcd79f60e31b8152600490fd5b60ff600080516020614177833981519152541661368f57565b60405163d93c066560e01b8152600490fd5b8181029291811591840414171561106b57565b9190820180921161106b57565b908160209103126102cd575180151581036102cd5790565b9190820391821161106b57565b600019811461106b5760010190565b6000805160206140f783398151915290815491600160401b8310156109cb5782611ce3916001613727950190556129cd565b565b90815491600160401b8310156109cb5782611ce391600161372795018155612a26565b604080519261375a84612a8f565b60008085526001600160a01b0394848616948515613ac8578383526020966002885260ff6005878620015460081c1615613a8b57613796613676565b8484528660008051602061419783398151915291828a528786205416801580159384613a6c575b6137c686612994565b805460010190558888528b5288872080546001600160a01b031916841790558783836000805160206141178339815191528a80a4156139c6576000805160206140f7833981519152548787526000805160206140d78339815191528b5288872055613830876136f5565b0361395f575b613947573b613848575b505050505050565b856138859185969798955180938192630a85bd0160e11b9788845233600485015287602485015260448401526080606484015260848301906128b4565b0381858a5af190829082613903575b50506138cb575050506138a56133e0565b805193846138c5578251633250574960e11b815260048101859052602490fd5b84925001fd5b9194506001600160e01b0319909116036138ec575050388080808080613840565b602492505190633250574960e11b82526004820152fd5b909192508781813d8311613940575b61391c8183612ac5565b810103126135225751906001600160e01b03198216820361351f5750903880613894565b503d613912565b84516339e3563760e11b815260048101849052602490fd5b61396882612fce565b60001981019081116139b257878552600080516020614077833981519152895286852081865289528587862055858552600080516020614057833981519152895286852055613836565b634e487b7160e01b85526011600452602485fd5b808214613830576139d681612fce565b878752600080516020614057833981519152808c528988205490828203613a28575b505087875286898120558187526000805160206140778339815191528b528887209087528a528588812055613830565b8389528c6000805160206140778339815191528082528c8b20858c5282528c8b205491868c52528d8c8b2090848c5252808c8b205589528c528988205538806139f8565b613a758961333f565b613a7e83612994565b80546000190190556137bd565b855162461bcd60e51b815260048101899052602260248201526000805160206141578339815191526044820152616c6560f01b6064820152608490fd5b8451633250574960e11b815260048101849052602490fd5b15613ae757565b60405162461bcd60e51b815260206004820152601960248201527f546f6b656e54726561743a2074726561742065787069726564000000000000006044820152606490fd5b15613b3357565b60405162461bcd60e51b815260206004820152602c60248201527f546f6b656e54726561743a20747265617420616c726561647920636c61696d6560448201526b19081bdc88195e1c1a5c995960a21b6064820152608490fd5b9092608092613bb895948352602083015260018060a01b031660408201528160608201520190612b8f565b90565b600081815260206002815260409160ff6005848320015460081c1615613df157613be3613676565b838152600080516020614197833981519152808352838220546001600160a01b03168015939184159081613dd2575b878552835285842080546001600160a01b03191690558684836000805160206141178339815191528280a48415613d285750506000805160206140f7833981519152548583526000805160206140d7833981519152825284832055613c76856136f5565b6000805160206140f783398151915291825460001992838201918211613178578783526000805160206140d783398151915290818152613cb988852054936129cd565b90549060031b1c613ccd81611ce3866129cd565b8452528582205585815280858120558254908115613d1457500190613cf4611d26836129cd565b55613cfd575050565b602492505190637e27328960e01b82526004820152fd5b634e487b7160e01b81526031600452602490fd5b613d33575b50613c76565b613d3c81612fce565b908684526000805160206140578339815191528084528685205490838203613d8f575b50508684528386812055835260008051602061407783398151915282528483209083528152818481205538613d2d565b8286526000805160206140778339815191528086528887208588528652888720549084885286528887208388528652808988205586528452868520553880613d5f565b613ddb8861333f565b613de483612994565b8054600019019055613c12565b50608491519062461bcd60e51b82526004820152602260248201526000805160206141578339815191526044820152616c6560f01b6064820152fd5b6001600160401b0381116109cb5760051b60200190565b90613e4e82613e2d565b613e5b6040519182612ac5565b8281528092613e6c601f1991613e2d565b0190602036910137565b8051821015612a105760209160051b010190565b6000526001602052613ea9613eb0604060002060405192838092612b8f565b0382612ac5565b6000604051613ebe81612a8f565b5290565b919060009280845260019360209285845260408220918151916001600160401b03831161402257613ef38454612b55565b601f8111613fdc575b508591601f8411600114613f5d5796977ff8e1a15aba9398e019f0b49df1a4fde98ee17ae345cb5f6b5e2c27f5033e8ce79792849283613f52575b50501b916000199060031b1c19161790555b604051908152a1565b015192503880613f37565b90979291601f198316858352878320925b818110613fc7575098837ff8e1a15aba9398e019f0b49df1a4fde98ee17ae345cb5f6b5e2c27f5033e8ce7999a10613fae575b505050811b019055613f49565b015160001960f88460031b161c19169055388080613fa1565b8a830151845592850192918801918801613f6e565b848352868320601f850160051c810191888610614018575b601f0160051c019089905b82811061400d575050613efc565b848155018990613fff565b9091508190613ff4565b634e487b7160e01b82526041600452602482fdfe2f8788117e7eff1d82e926ec794901d17c78024a50270940304540a733656f0d645e039705490088daad89bae25049a34f4a9072d398537b1ab2425f24cbed01645e039705490088daad89bae25049a34f4a9072d398537b1ab2425f24cbed0080bb2b638cc20bc4d0a60d66940f3ab4a00c1d7b313497ca82fb0b4ab0079300f4bad0a69248f59680a4f2b3000328cec71a413447c96781cfe5996daa8c456e645e039705490088daad89bae25049a34f4a9072d398537b1ab2425f24cbed03645e039705490088daad89bae25049a34f4a9072d398537b1ab2425f24cbed02ddf252ad1be2c89b69c2b068fc378daa952ba7f163c4a11628f55a4df523b3ef02dd7bc7dec4dceedda775e58dd541e08a116c6c53815c0bd028192f7b626800546f6b656e54726561743a20746f6b656e206e6f74207472616e736665726162cd5ed15c6e187e77e9aee88184c21f4f2182ab5827cb3b7e07fbedcd63f0330080bb2b638cc20bc4d0a60d66940f3ab4a00c1d7b313497ca82fb0b4ab007930280bb2b638cc20bc4d0a60d66940f3ab4a00c1d7b313497ca82fb0b4ab0079304f0c57e16840df040f15088dc2f81fe391c3923bec73e23a9662efc9c229c6a0080bb2b638cc20bc4d0a60d66940f3ab4a00c1d7b313497ca82fb0b4ab007930137c58c799b6609234b945e882912ee9ad34948a1dfaa20a97485e1a7752bbf81a26469706673582212206f0ccf5a4c898918efd595e119a6ac3c603842db4365111aa0f60527d99e41c564736f6c63430008140033",
  "linkReferences": {},
  "deployedLinkReferences": {}
}